{
  "contractName": "Client",
  "abi": [
    {
      "inputs": [
        {
          "internalType": "address",
          "name": "_addPlotContract",
          "type": "address"
        }
      ],
      "stateMutability": "nonpayable",
      "type": "constructor"
    },
    {
      "anonymous": false,
      "inputs": [
        {
          "indexed": false,
          "internalType": "address",
          "name": "_hPlotContract",
          "type": "address"
        },
        {
          "indexed": false,
          "internalType": "address",
          "name": "_LandOwner",
          "type": "address"
        },
        {
          "indexed": false,
          "internalType": "uint32",
          "name": "_att_uPlotCount",
          "type": "uint32"
        }
      ],
      "name": "ListPlotInfo",
      "type": "event"
    },
    {
      "anonymous": false,
      "inputs": [
        {
          "indexed": false,
          "internalType": "uint32",
          "name": "_PlotNo",
          "type": "uint32"
        },
        {
          "indexed": false,
          "internalType": "uint32",
          "name": "_UPlotNo",
          "type": "uint32"
        },
        {
          "indexed": false,
          "internalType": "enum Client.EnumPlotUnitOwnedSold",
          "name": "_UPStatus",
          "type": "uint8"
        }
      ],
      "name": "debugGetPlotUnitsOwnedByMe",
      "type": "event"
    },
    {
      "anonymous": false,
      "inputs": [
        {
          "indexed": false,
          "internalType": "uint256",
          "name": "temp_CountOfTx",
          "type": "uint256"
        }
      ],
      "name": "debugPropertyOwned",
      "type": "event"
    },
    {
      "anonymous": false,
      "inputs": [
        {
          "indexed": false,
          "internalType": "uint32",
          "name": "_PlotNoLeassed",
          "type": "uint32"
        },
        {
          "indexed": false,
          "internalType": "enum Client.PlotLeaseStatus",
          "name": "_PlotLeassStatus",
          "type": "uint8"
        }
      ],
      "name": "dubugGetPlotUnitsLeasedByMe",
      "type": "event"
    },
    {
      "inputs": [],
      "name": "addPlotContract",
      "outputs": [
        {
          "internalType": "address",
          "name": "",
          "type": "address"
        }
      ],
      "stateMutability": "view",
      "type": "function",
      "constant": true
    },
    {
      "inputs": [],
      "name": "hPlotContract",
      "outputs": [
        {
          "internalType": "contract Plot",
          "name": "",
          "type": "address"
        }
      ],
      "stateMutability": "view",
      "type": "function",
      "constant": true
    },
    {
      "inputs": [],
      "name": "debugGetPlotAdd",
      "outputs": [
        {
          "internalType": "bool",
          "name": "",
          "type": "bool"
        }
      ],
      "stateMutability": "nonpayable",
      "type": "function"
    },
    {
      "inputs": [
        {
          "internalType": "address",
          "name": "_accBalance",
          "type": "address"
        }
      ],
      "name": "GetAccBalance",
      "outputs": [
        {
          "internalType": "uint256",
          "name": "",
          "type": "uint256"
        }
      ],
      "stateMutability": "view",
      "type": "function",
      "constant": true
    },
    {
      "inputs": [
        {
          "internalType": "uint32",
          "name": "_PlotNo",
          "type": "uint32"
        },
        {
          "internalType": "uint32",
          "name": "_PUnitNo",
          "type": "uint32"
        }
      ],
      "name": "BuyPlotUnits",
      "outputs": [
        {
          "internalType": "bool",
          "name": "",
          "type": "bool"
        }
      ],
      "stateMutability": "payable",
      "type": "function",
      "payable": true
    },
    {
      "inputs": [
        {
          "internalType": "uint32",
          "name": "_PlotNo",
          "type": "uint32"
        },
        {
          "internalType": "uint32",
          "name": "_PUnitNo",
          "type": "uint32"
        }
      ],
      "name": "SellPlotUnit",
      "outputs": [
        {
          "internalType": "bool",
          "name": "",
          "type": "bool"
        }
      ],
      "stateMutability": "nonpayable",
      "type": "function"
    },
    {
      "inputs": [],
      "name": "GetPlotUnitsOwnedByMe",
      "outputs": [
        {
          "internalType": "bool",
          "name": "",
          "type": "bool"
        }
      ],
      "stateMutability": "nonpayable",
      "type": "function"
    },
    {
      "inputs": [
        {
          "internalType": "uint32",
          "name": "_plotNo",
          "type": "uint32"
        }
      ],
      "name": "GetPlotRentValue",
      "outputs": [
        {
          "internalType": "uint256",
          "name": "_uRentValue",
          "type": "uint256"
        }
      ],
      "stateMutability": "view",
      "type": "function",
      "constant": true
    },
    {
      "inputs": [
        {
          "internalType": "uint32",
          "name": "_plotNo",
          "type": "uint32"
        },
        {
          "internalType": "uint32",
          "name": "_leaseeDuration",
          "type": "uint32"
        }
      ],
      "name": "LeaseePlot",
      "outputs": [
        {
          "internalType": "bool",
          "name": "",
          "type": "bool"
        }
      ],
      "stateMutability": "nonpayable",
      "type": "function"
    },
    {
      "inputs": [
        {
          "internalType": "uint32",
          "name": "_plotNo",
          "type": "uint32"
        }
      ],
      "name": "PayRent",
      "outputs": [
        {
          "internalType": "bool",
          "name": "",
          "type": "bool"
        }
      ],
      "stateMutability": "payable",
      "type": "function",
      "payable": true
    },
    {
      "inputs": [
        {
          "internalType": "uint32",
          "name": "_plotNo",
          "type": "uint32"
        }
      ],
      "name": "UnLeasePlot",
      "outputs": [
        {
          "internalType": "bool",
          "name": "",
          "type": "bool"
        }
      ],
      "stateMutability": "nonpayable",
      "type": "function"
    },
    {
      "inputs": [],
      "name": "GetPlotUnitsLeasedByMe",
      "outputs": [
        {
          "internalType": "bool",
          "name": "",
          "type": "bool"
        }
      ],
      "stateMutability": "nonpayable",
      "type": "function"
    }
  ],
  "bytecode": "0x60806040523480156200001157600080fd5b506040516200233c3803806200233c8339818101604052810190620000379190620000f7565b806000806101000a81548173ffffffffffffffffffffffffffffffffffffffff021916908373ffffffffffffffffffffffffffffffffffffffff1602179055506000809054906101000a900473ffffffffffffffffffffffffffffffffffffffff16600160006101000a81548173ffffffffffffffffffffffffffffffffffffffff021916908373ffffffffffffffffffffffffffffffffffffffff1602179055505062000171565b600081519050620000f18162000157565b92915050565b6000602082840312156200010a57600080fd5b60006200011a84828501620000e0565b91505092915050565b6000620001308262000137565b9050919050565b600073ffffffffffffffffffffffffffffffffffffffff82169050919050565b620001628162000123565b81146200016e57600080fd5b50565b6121bb80620001816000396000f3fe6080604052600436106100a75760003560e01c8063b782dce711610064578063b782dce7146101ee578063ccd0df1614610219578063dbf6a99214610244578063df43fab31461026f578063e1687bd4146102ac578063ef39590a146102d7576100a7565b806309bea4ae146100ac578063403d6299146100e957806363796ba614610126578063717b0d7214610156578063929d6d6414610181578063a794b28c146101be575b600080fd5b3480156100b857600080fd5b506100d360048036038101906100ce91906119c9565b610314565b6040516100e09190611d04565b60405180910390f35b3480156100f557600080fd5b50610110600480360381019061010b9190611977565b6104c6565b60405161011d9190611e55565b60405180910390f35b610140600480360381019061013b91906119c9565b61057f565b60405161014d9190611d04565b60405180910390f35b34801561016257600080fd5b5061016b610aaf565b6040516101789190611d04565b60405180910390f35b34801561018d57600080fd5b506101a860048036038101906101a39190611977565b610c7e565b6040516101b59190611d04565b60405180910390f35b6101d860048036038101906101d39190611977565b610e58565b6040516101e59190611d04565b60405180910390f35b3480156101fa57600080fd5b50610203611125565b6040516102109190611d04565b60405180910390f35b34801561022557600080fd5b5061022e61137d565b60405161023b9190611d04565b60405180910390f35b34801561025057600080fd5b506102596115cf565b6040516102669190611d1f565b60405180910390f35b34801561027b57600080fd5b5061029660048036038101906102919190611897565b6115f5565b6040516102a39190611e55565b60405180910390f35b3480156102b857600080fd5b506102c1611616565b6040516102ce9190611cb2565b60405180910390f35b3480156102e357600080fd5b506102fe60048036038101906102f991906119c9565b61163b565b60405161030b9190611d04565b60405180910390f35b600080600160009054906101000a900473ffffffffffffffffffffffffffffffffffffffff1673ffffffffffffffffffffffffffffffffffffffff1663983331f38485336040518463ffffffff1660e01b815260040161037693929190611f06565b60206040518083038186803b15801561038e57600080fd5b505afa1580156103a2573d6000803e3d6000fd5b505050506040513d601f19601f820116820180604052508101906103c69190611925565b905080610408576040517f08c379a00000000000000000000000000000000000000000000000000000000081526004016103ff90611e15565b60405180910390fd5b600160009054906101000a900473ffffffffffffffffffffffffffffffffffffffff1673ffffffffffffffffffffffffffffffffffffffff1663e1842bf7858560016040518463ffffffff1660e01b815260040161046893929190611f3d565b602060405180830381600087803b15801561048257600080fd5b505af1158015610496573d6000803e3d6000fd5b505050506040513d601f19601f820116820180604052508101906104ba9190611925565b50600191505092915050565b600080600160009054906101000a900473ffffffffffffffffffffffffffffffffffffffff1673ffffffffffffffffffffffffffffffffffffffff1663403d6299846040518263ffffffff1660e01b81526004016105249190611e70565b60206040518083038186803b15801561053c57600080fd5b505afa158015610550573d6000803e3d6000fd5b505050506040513d601f19601f82011682018060405250810190610574919061194e565b905080915050919050565b6000806000600160009054906101000a900473ffffffffffffffffffffffffffffffffffffffff1673ffffffffffffffffffffffffffffffffffffffff1663b5e4edc8868634336040518563ffffffff1660e01b81526004016105e59493929190611fab565b6040805180830381600087803b1580156105fe57600080fd5b505af1158015610612573d6000803e3d6000fd5b505050506040513d601f19601f8201168201806040525081019061063691906118e9565b809250819350505060008273ffffffffffffffffffffffffffffffffffffffff166108fc839081150290604051600060405180830381858888f193505050509050806106b7576040517f08c379a00000000000000000000000000000000000000000000000000000000081526004016106ae90611db5565b60405180910390fd5b6000600160009054906101000a900473ffffffffffffffffffffffffffffffffffffffff1673ffffffffffffffffffffffffffffffffffffffff1663e3f7c71f8888336040518463ffffffff1660e01b815260040161071893929190611f06565b602060405180830381600087803b15801561073257600080fd5b505af1158015610746573d6000803e3d6000fd5b505050506040513d601f19601f8201168201806040525081019061076a9190611925565b9050806107ac576040517f08c379a00000000000000000000000000000000000000000000000000000000081526004016107a390611d75565b60405180910390fd5b60008090505b600460003373ffffffffffffffffffffffffffffffffffffffff1673ffffffffffffffffffffffffffffffffffffffff168152602001908152602001600020805490508163ffffffff161015610990578763ffffffff16600460003373ffffffffffffffffffffffffffffffffffffffff1673ffffffffffffffffffffffffffffffffffffffff1681526020019081526020016000208263ffffffff168154811061085957fe5b9060005260206000200160000160009054906101000a900463ffffffff1663ffffffff161415610985578663ffffffff16600460003373ffffffffffffffffffffffffffffffffffffffff1673ffffffffffffffffffffffffffffffffffffffff1681526020019081526020016000208263ffffffff16815481106108da57fe5b9060005260206000200160000160049054906101000a900463ffffffff1663ffffffff161415610984576001600460003373ffffffffffffffffffffffffffffffffffffffff1673ffffffffffffffffffffffffffffffffffffffff1681526020019081526020016000208263ffffffff168154811061095657fe5b9060005260206000200160000160086101000a81548160ff0219169083600181111561097e57fe5b02179055505b5b8060010190506107b2565b50600460003373ffffffffffffffffffffffffffffffffffffffff1673ffffffffffffffffffffffffffffffffffffffff16815260200190815260200160002060405180606001604052808963ffffffff1681526020018863ffffffff16815260200160006001811115610a0057fe5b8152509080600181540180825580915050600190039060005260206000200160009091909190915060008201518160000160006101000a81548163ffffffff021916908363ffffffff16021790555060208201518160000160046101000a81548163ffffffff021916908363ffffffff16021790555060408201518160000160086101000a81548160ff02191690836001811115610a9a57fe5b02179055505050600194505050505092915050565b600080600360003373ffffffffffffffffffffffffffffffffffffffff1673ffffffffffffffffffffffffffffffffffffffff16815260200190815260200160002080549050905060008111610b3a576040517f08c379a0000000000000000000000000000000000000000000000000000000008152600401610b3190611dd5565b60405180910390fd5b60008090505b81811015610c7957600360003373ffffffffffffffffffffffffffffffffffffffff1673ffffffffffffffffffffffffffffffffffffffff1681526020019081526020016000208181548110610b9257fe5b9060005260206000200160066000820160009054906101000a900463ffffffff168160000160006101000a81548163ffffffff021916908363ffffffff1602179055506000820160049054906101000a900460ff168160000160046101000a81548160ff02191690836001811115610c0657fe5b02179055509050507fae97285e3048b1bf93bd1e6028d267d21d7d7bf886705f274c32a07951c9ed2f600660000160009054906101000a900463ffffffff16600660000160049054906101000a900460ff16604051610c66929190611eb4565b60405180910390a1806001019050610b40565b505090565b600080600160009054906101000a900473ffffffffffffffffffffffffffffffffffffffff1673ffffffffffffffffffffffffffffffffffffffff166348683a5184336040518363ffffffff1660e01b8152600401610cde929190611e8b565b602060405180830381600087803b158015610cf857600080fd5b505af1158015610d0c573d6000803e3d6000fd5b505050506040513d601f19601f82011682018060405250810190610d309190611925565b905080610d72576040517f08c379a0000000000000000000000000000000000000000000000000000000008152600401610d6990611d55565b60405180910390fd5b600360003373ffffffffffffffffffffffffffffffffffffffff1673ffffffffffffffffffffffffffffffffffffffff16815260200190815260200160002060405180604001604052808563ffffffff168152602001600180811115610dd457fe5b8152509080600181540180825580915050600190039060005260206000200160009091909190915060008201518160000160006101000a81548163ffffffff021916908363ffffffff16021790555060208201518160000160046101000a81548160ff02191690836001811115610e4757fe5b021790555050506001915050919050565b6000806000600160009054906101000a900473ffffffffffffffffffffffffffffffffffffffff1673ffffffffffffffffffffffffffffffffffffffff166313f2f6b9856040518263ffffffff1660e01b8152600401610eb89190611e70565b60206040518083038186803b158015610ed057600080fd5b505afa158015610ee4573d6000803e3d6000fd5b505050506040513d601f19601f82011682018060405250810190610f0891906119a0565b90506000600160009054906101000a900473ffffffffffffffffffffffffffffffffffffffff1673ffffffffffffffffffffffffffffffffffffffff1663403d6299866040518263ffffffff1660e01b8152600401610f679190611e70565b60206040518083038186803b158015610f7f57600080fd5b505afa158015610f93573d6000803e3d6000fd5b505050506040513d601f19601f82011682018060405250810190610fb7919061194e565b905060008263ffffffff168281610fca57fe5b0490506000600190505b8363ffffffff168163ffffffff161161111b57600160009054906101000a900473ffffffffffffffffffffffffffffffffffffffff1673ffffffffffffffffffffffffffffffffffffffff16633e8fbc2c88836040518363ffffffff1660e01b8152600401611044929190611edd565b60206040518083038186803b15801561105c57600080fd5b505afa158015611070573d6000803e3d6000fd5b505050506040513d601f19601f8201168201806040525081019061109491906118c0565b945060008573ffffffffffffffffffffffffffffffffffffffff166108fc849081150290604051600060405180830381858888f1935050505090508061110f576040517f08c379a000000000000000000000000000000000000000000000000000000000815260040161110690611df5565b60405180910390fd5b50806001019050610fd4565b5050505050919050565b600080600460003373ffffffffffffffffffffffffffffffffffffffff1673ffffffffffffffffffffffffffffffffffffffff1681526020019081526020016000208054905090507f5b7f4e77bf2f06811f49500d8626e7bc847d698105265da4da62ed9c912605518160405161119c9190611e55565b60405180910390a1600081116111e7576040517f08c379a00000000000000000000000000000000000000000000000000000000081526004016111de90611e35565b60405180910390fd5b60008090505b8181101561137457600460003373ffffffffffffffffffffffffffffffffffffffff1673ffffffffffffffffffffffffffffffffffffffff168152602001908152602001600020818154811061123f57fe5b9060005260206000200160056000820160009054906101000a900463ffffffff168160000160006101000a81548163ffffffff021916908363ffffffff1602179055506000820160049054906101000a900463ffffffff168160000160046101000a81548163ffffffff021916908363ffffffff1602179055506000820160089054906101000a900460ff168160000160086101000a81548160ff021916908360018111156112ea57fe5b02179055509050507f0b65badcc142671ab9062d338a4180c384037b26cfaf71ca7c955f045fe50a5c600560000160009054906101000a900463ffffffff16600560000160049054906101000a900463ffffffff16600560000160089054906101000a900460ff1660405161136193929190611f74565b60405180910390a18060010190506111ed565b50600191505090565b6000600160009054906101000a900473ffffffffffffffffffffffffffffffffffffffff1673ffffffffffffffffffffffffffffffffffffffff1663d571d4ba60016040518263ffffffff1660e01b81526004016113db9190611d3a565b602060405180830381600087803b1580156113f557600080fd5b505af1158015611409573d6000803e3d6000fd5b505050506040513d601f19601f8201168201806040525081019061142d9190611925565b507fed4847587cf49a42ed2711b08f8a5508d749355950cce6803994aa5d03f938946000809054906101000a900473ffffffffffffffffffffffffffffffffffffffff16600160009054906101000a900473ffffffffffffffffffffffffffffffffffffffff1673ffffffffffffffffffffffffffffffffffffffff1663c460632b6040518163ffffffff1660e01b815260040160206040518083038186803b1580156114d957600080fd5b505afa1580156114ed573d6000803e3d6000fd5b505050506040513d601f19601f8201168201806040525081019061151191906118c0565b600160009054906101000a900473ffffffffffffffffffffffffffffffffffffffff1673ffffffffffffffffffffffffffffffffffffffff1663489691966040518163ffffffff1660e01b815260040160206040518083038186803b15801561157957600080fd5b505afa15801561158d573d6000803e3d6000fd5b505050506040513d601f19601f820116820180604052508101906115b191906119a0565b6040516115c093929190611ccd565b60405180910390a16001905090565b600160009054906101000a900473ffffffffffffffffffffffffffffffffffffffff1681565b60008173ffffffffffffffffffffffffffffffffffffffff16319050919050565b6000809054906101000a900473ffffffffffffffffffffffffffffffffffffffff1681565b600080600160009054906101000a900473ffffffffffffffffffffffffffffffffffffffff1673ffffffffffffffffffffffffffffffffffffffff166308de34608585336040518463ffffffff1660e01b815260040161169d93929190611f06565b602060405180830381600087803b1580156116b757600080fd5b505af11580156116cb573d6000803e3d6000fd5b505050506040513d601f19601f820116820180604052508101906116ef9190611925565b905080611731576040517f08c379a000000000000000000000000000000000000000000000000000000000815260040161172890611d95565b60405180910390fd5b600360003373ffffffffffffffffffffffffffffffffffffffff1673ffffffffffffffffffffffffffffffffffffffff16815260200190815260200160002060405180604001604052808663ffffffff1681526020016000600181111561179457fe5b8152509080600181540180825580915050600190039060005260206000200160009091909190915060008201518160000160006101000a81548163ffffffff021916908363ffffffff16021790555060208201518160000160046101000a81548160ff0219169083600181111561180757fe5b02179055505050600191505092915050565b60008135905061182881612129565b92915050565b60008151905061183d81612129565b92915050565b60008151905061185281612140565b92915050565b60008151905061186781612157565b92915050565b60008135905061187c8161216e565b92915050565b6000815190506118918161216e565b92915050565b6000602082840312156118a957600080fd5b60006118b784828501611819565b91505092915050565b6000602082840312156118d257600080fd5b60006118e08482850161182e565b91505092915050565b600080604083850312156118fc57600080fd5b600061190a8582860161182e565b925050602061191b85828601611858565b9150509250929050565b60006020828403121561193757600080fd5b600061194584828501611843565b91505092915050565b60006020828403121561196057600080fd5b600061196e84828501611858565b91505092915050565b60006020828403121561198957600080fd5b60006119978482850161186d565b91505092915050565b6000602082840312156119b257600080fd5b60006119c084828501611882565b91505092915050565b600080604083850312156119dc57600080fd5b60006119ea8582860161186d565b92505060206119fb8582860161186d565b9150509250929050565b611a0e8161207f565b82525050565b611a1d81612001565b82525050565b611a2c81612013565b82525050565b611a3b81612091565b82525050565b611a4a816120b5565b82525050565b611a59816120c7565b82525050565b611a68816120d9565b82525050565b6000611a7b601483611ff0565b91507f506c6f74206973206e6f7420554e4c45415345440000000000000000000000006000830152602082019050919050565b6000611abb602583611ff0565b91507f4661696c656420746f2073656e64205472616e7366657220746865206f776e6560008301527f72736869700000000000000000000000000000000000000000000000000000006020830152604082019050919050565b6000611b21602083611ff0565b91507f54686520706c6f74206973204c656173656564207375636365737366756c6c796000830152602082019050919050565b6000611b61601f83611ff0565b91507f4661696c656420746f2073656e6420457468657220666f7220427579696e67006000830152602082019050919050565b6000611ba1601283611ff0565b91507f4e6f2070726f7065727479204c454153454400000000000000000000000000006000830152602082019050919050565b6000611be1601a83611ff0565b91507f52656e74204e6f742070616964207375636365737366756c6c790000000000006000830152602082019050919050565b6000611c21601f83611ff0565b91507f596f7520646f206e6f74206f776e2074686520556e697420746f2053656c6c006000830152602082019050919050565b6000611c61601183611ff0565b91507f4e6f2070726f7065727479204f574e45440000000000000000000000000000006000830152602082019050919050565b611c9d81612065565b82525050565b611cac8161206f565b82525050565b6000602082019050611cc76000830184611a14565b92915050565b6000606082019050611ce26000830186611a14565b611cef6020830185611a14565b611cfc6040830184611ca3565b949350505050565b6000602082019050611d196000830184611a23565b92915050565b6000602082019050611d346000830184611a32565b92915050565b6000602082019050611d4f6000830184611a5f565b92915050565b60006020820190508181036000830152611d6e81611a6e565b9050919050565b60006020820190508181036000830152611d8e81611aae565b9050919050565b60006020820190508181036000830152611dae81611b14565b9050919050565b60006020820190508181036000830152611dce81611b54565b9050919050565b60006020820190508181036000830152611dee81611b94565b9050919050565b60006020820190508181036000830152611e0e81611bd4565b9050919050565b60006020820190508181036000830152611e2e81611c14565b9050919050565b60006020820190508181036000830152611e4e81611c54565b9050919050565b6000602082019050611e6a6000830184611c94565b92915050565b6000602082019050611e856000830184611ca3565b92915050565b6000604082019050611ea06000830185611ca3565b611ead6020830184611a05565b9392505050565b6000604082019050611ec96000830185611ca3565b611ed66020830184611a50565b9392505050565b6000604082019050611ef26000830185611ca3565b611eff6020830184611ca3565b9392505050565b6000606082019050611f1b6000830186611ca3565b611f286020830185611ca3565b611f356040830184611a05565b949350505050565b6000606082019050611f526000830186611ca3565b611f5f6020830185611ca3565b611f6c6040830184611a23565b949350505050565b6000606082019050611f896000830186611ca3565b611f966020830185611ca3565b611fa36040830184611a41565b949350505050565b6000608082019050611fc06000830187611ca3565b611fcd6020830186611ca3565b611fda6040830185611c94565b611fe76060830184611a05565b95945050505050565b600082825260208201905092915050565b600061200c82612045565b9050919050565b60008115159050919050565b600081905061202d8261210f565b919050565b60008190506120408261211c565b919050565b600073ffffffffffffffffffffffffffffffffffffffff82169050919050565b6000819050919050565b600063ffffffff82169050919050565b600061208a826120eb565b9050919050565b600061209c826120a3565b9050919050565b60006120ae82612045565b9050919050565b60006120c08261201f565b9050919050565b60006120d282612032565b9050919050565b60006120e48261206f565b9050919050565b60006120f6826120fd565b9050919050565b600061210882612045565b9050919050565b6002811061211957fe5b50565b6002811061212657fe5b50565b61213281612001565b811461213d57600080fd5b50565b61214981612013565b811461215457600080fd5b50565b61216081612065565b811461216b57600080fd5b50565b6121778161206f565b811461218257600080fd5b5056fea26469706673582212200d7f5f2e1fb12888687bc603018f4efdc23f1c009de51c14b300bf56fa29a8ba64736f6c63430006060033",
  "immutableReferences": {},
  "source": "pragma solidity >=0.6.6 <0.7.0;\npragma experimental ABIEncoderV2;\nimport './Plot.sol';\n\ncontract Client{\n    \n    address public addPlotContract;\n    Plot public hPlotContract;\n    \n    address blackListedLesee;\n    enum PlotLeaseStatus{ LEASED, UNLEASED }\n    \n    struct StructPlotLeseeTx{\n        uint32 uPlotNo;\n        PlotLeaseStatus ePlotLeaseStatus;\n    }\n    mapping(address=>StructPlotLeseeTx[]) mapLeaseeInfo;\n    \n    enum EnumPlotUnitOwnedSold{ OWNED, SOLD }\n    \n    \n    struct StructPlotUnitTx{\n        uint32 uPlotNo;\n        uint32 uUPlotNo;\n        EnumPlotUnitOwnedSold eUPStatus;\n    }\n    \n    mapping(address=>StructPlotUnitTx[]) mapInvistorInfo;\n    \n    constructor (address _addPlotContract) public {\n        addPlotContract = _addPlotContract;\n        hPlotContract = Plot(addPlotContract);\n    }\n    \n    event ListPlotInfo( address _hPlotContract, address _LandOwner, uint32 _att_uPlotCount);\n    function debugGetPlotAdd() public  returns(bool){\n        hPlotContract.GetPlotByID(1);\n        emit ListPlotInfo(addPlotContract, hPlotContract.att_aOwner(), hPlotContract.att_uPlotCount() );\n        return true;\n    }\n    function GetAccBalance(address _accBalance) public view returns(uint){\n        return (_accBalance.balance);\n    }\n\n    //Functions to  Buying the plot unit\n    function BuyPlotUnits(uint32 _PlotNo, uint32 _PUnitNo) public payable returns(bool){\n        \n        address temp_aPresentOwner;\n        uint256 temp_uPUnitValue;\n        \n        (temp_aPresentOwner, temp_uPUnitValue) = hPlotContract.ChkConditionToBuy ( _PlotNo,  _PUnitNo, msg.value , msg.sender);\n        bool temp_bSentSuccess = payable(temp_aPresentOwner).send(temp_uPUnitValue);//*1000000000000000000);\n        require(temp_bSentSuccess, \"Failed to send Ether for Buying\");\n        \n        bool temp_bTxOwnerSuccess = hPlotContract.TransferOwnership( _PlotNo, _PUnitNo, msg.sender);\n        require(temp_bTxOwnerSuccess, \"Failed to send Transfer the ownership\");\n        for (uint32 count = 0 ; count < mapInvistorInfo[msg.sender].length;++count ){\n            if( mapInvistorInfo[msg.sender][count].uPlotNo == _PlotNo){\n                if(mapInvistorInfo[msg.sender][count].uUPlotNo == _PUnitNo){\n                    mapInvistorInfo[msg.sender][count].eUPStatus = EnumPlotUnitOwnedSold.SOLD;\n                }\n            }\n        }\n       \n        \n        //Update the Investor record\n        mapInvistorInfo[msg.sender].push(StructPlotUnitTx(_PlotNo,_PUnitNo, EnumPlotUnitOwnedSold.OWNED) );\n        \n        return true;\n        \n    }\n    \n\n    function SellPlotUnit (uint32 _PlotNo, uint32 _PUnitNo) public returns(bool){\n        bool temp_bValidOwner = hPlotContract.ChkConditionToSell(_PUnitNo, _PUnitNo, msg.sender);\n        require(temp_bValidOwner, \"You do not own the Unit to Sell\");\n        hPlotContract.SetPlotUnitReadyForSaleStatus(_PlotNo, _PUnitNo, true);\n        return true;\n    }\n\n    event debugGetPlotUnitsOwnedByMe(uint32 _PlotNo, uint32 _UPlotNo, EnumPlotUnitOwnedSold _UPStatus);\n    event debugPropertyOwned(uint temp_CountOfTx);\n    StructPlotUnitTx att_stPlotUnitTx;\n    function GetPlotUnitsOwnedByMe() public returns(bool){\n        uint temp_CountOfTx = mapInvistorInfo[msg.sender].length;\n        emit debugPropertyOwned(temp_CountOfTx);\n        require(temp_CountOfTx >0, \"No property OWNED\");\n        for (uint count=0; count < temp_CountOfTx; ++count){\n            att_stPlotUnitTx = mapInvistorInfo[msg.sender][count];\n            emit debugGetPlotUnitsOwnedByMe ( att_stPlotUnitTx.uPlotNo, att_stPlotUnitTx.uUPlotNo, att_stPlotUnitTx.eUPStatus);\n        }\n        return true;\n    }\n    \n    //Functions to leasee the plot\n    function GetPlotRentValue(uint32 _plotNo) public view returns(uint256 _uRentValue){\n        uint256 temp_uRentValue = hPlotContract.GetPlotRentValue(_plotNo);\n        return(temp_uRentValue);\n    }\n    \n    function LeaseePlot(uint32 _plotNo, uint32 _leaseeDuration) public returns(bool){\n        bool temp_bLeaseeSuccess = hPlotContract.LeaseePlot(_plotNo,_leaseeDuration, msg.sender);\n        require(temp_bLeaseeSuccess, \"The plot is Leaseed successfully\");\n        mapLeaseeInfo[msg.sender].push(StructPlotLeseeTx(_plotNo, PlotLeaseStatus.LEASED));\n        return true;\n    }\n    \n    function PayRent(uint32 _plotNo) public payable returns(bool){\n        address temp_aUnitOwernAddress;\n        \n        uint32 temp_uNoOfUnitOwners = hPlotContract.GetPlotUnitCount(_plotNo);\n        uint256 temp_uPlotValue = hPlotContract.GetPlotRentValue(_plotNo);\n        uint256 temp_uUnitRentValue = temp_uPlotValue/temp_uNoOfUnitOwners;\n        \n        for(uint32 count=1; count <= temp_uNoOfUnitOwners; ++count){\n            temp_aUnitOwernAddress = hPlotContract.GetPlotUnitOwner(_plotNo, count);\n            bool temp_bRentPaidSuccessful = payable(temp_aUnitOwernAddress).send(temp_uUnitRentValue);\n            require(temp_bRentPaidSuccessful, \"Rent Not paid successfully\");\n        }\n        \n    }\n\n    function UnLeasePlot( uint32 _plotNo) public returns(bool) {\n        bool temp_bUnleaseeSuccess = hPlotContract.UnLeasePlot(_plotNo, msg.sender);\n        require(temp_bUnleaseeSuccess, \"Plot is not UNLEASED\");\n        mapLeaseeInfo[msg.sender].push(StructPlotLeseeTx(_plotNo, PlotLeaseStatus.UNLEASED));\n        return true;\n    }\n    \n    event dubugGetPlotUnitsLeasedByMe(uint32 _PlotNoLeassed,  PlotLeaseStatus _PlotLeassStatus);\n    StructPlotLeseeTx att_stPlotLeassTx;\n    function GetPlotUnitsLeasedByMe() public returns(bool){\n        uint temp_CountOfTx = mapLeaseeInfo[msg.sender].length;\n        require(temp_CountOfTx >0, \"No property LEASED\");\n        for (uint count=0; count < temp_CountOfTx; ++count){\n            att_stPlotLeassTx = mapLeaseeInfo[msg.sender][count];\n            emit dubugGetPlotUnitsLeasedByMe (att_stPlotLeassTx.uPlotNo, att_stPlotLeassTx.ePlotLeaseStatus);\n        } \n    }\n\n}",
  "sourcePath": "/Users/dsnathan/Projects/Emurgu/Project/LandLease/LLContract/contracts/Client.sol",
  "compiler": {
    "name": "solc",
    "version": "0.6.6+commit.6c089d02.Emscripten.clang"
  },
  "schemaVersion": "3.1.0",
  "updatedAt": "2020-06-13T17:46:49.943Z",
  "networkType": "ethereum",
  "devdoc": {
    "methods": {}
  },
  "userdoc": {
    "methods": {}
  }
}