{
  "contractName": "Plot",
  "abi": [
    {
      "inputs": [],
      "stateMutability": "nonpayable",
      "type": "constructor"
    },
    {
      "anonymous": false,
      "inputs": [
        {
          "indexed": false,
          "internalType": "address",
          "name": "_LeaseeAddress",
          "type": "address"
        }
      ],
      "name": "debugGetPlotLeasee",
      "type": "event"
    },
    {
      "anonymous": false,
      "inputs": [
        {
          "indexed": false,
          "internalType": "uint32",
          "name": "_uPlotNo",
          "type": "uint32"
        },
        {
          "indexed": false,
          "internalType": "uint32",
          "name": "_uPUnitCount",
          "type": "uint32"
        },
        {
          "indexed": false,
          "internalType": "uint256",
          "name": "_uPUnitValue",
          "type": "uint256"
        },
        {
          "indexed": false,
          "internalType": "address",
          "name": "_aLeaseeAddr",
          "type": "address"
        },
        {
          "indexed": false,
          "internalType": "uint32",
          "name": "_uLeaseeDuration",
          "type": "uint32"
        }
      ],
      "name": "debugListPlots",
      "type": "event"
    },
    {
      "anonymous": false,
      "inputs": [
        {
          "indexed": false,
          "internalType": "address",
          "name": "_aInvestorAddr",
          "type": "address"
        },
        {
          "indexed": false,
          "internalType": "address",
          "name": "aNewBuyerAddr",
          "type": "address"
        },
        {
          "indexed": false,
          "internalType": "uint32",
          "name": "uPlotNo",
          "type": "uint32"
        },
        {
          "indexed": false,
          "internalType": "uint32",
          "name": "uPUnitNo",
          "type": "uint32"
        },
        {
          "indexed": false,
          "internalType": "uint32",
          "name": "uPUnitID",
          "type": "uint32"
        },
        {
          "indexed": false,
          "internalType": "bool",
          "name": "bReadyForSale",
          "type": "bool"
        }
      ],
      "name": "debugListPlotsUnit",
      "type": "event"
    },
    {
      "inputs": [],
      "name": "att_aOwner",
      "outputs": [
        {
          "internalType": "address",
          "name": "",
          "type": "address"
        }
      ],
      "stateMutability": "view",
      "type": "function",
      "constant": true
    },
    {
      "inputs": [
        {
          "internalType": "uint256",
          "name": "",
          "type": "uint256"
        }
      ],
      "name": "att_arr_stPlot",
      "outputs": [
        {
          "internalType": "uint32",
          "name": "uPlotNo",
          "type": "uint32"
        },
        {
          "internalType": "uint32",
          "name": "uPUnitCount",
          "type": "uint32"
        },
        {
          "internalType": "uint256",
          "name": "uPUnitValue",
          "type": "uint256"
        },
        {
          "internalType": "address",
          "name": "aLeaseeAddr",
          "type": "address"
        },
        {
          "internalType": "uint32",
          "name": "uLeaseeDuration",
          "type": "uint32"
        }
      ],
      "stateMutability": "view",
      "type": "function",
      "constant": true
    },
    {
      "inputs": [],
      "name": "att_uPlotCount",
      "outputs": [
        {
          "internalType": "uint32",
          "name": "",
          "type": "uint32"
        }
      ],
      "stateMutability": "view",
      "type": "function",
      "constant": true
    },
    {
      "inputs": [],
      "name": "ResetPlots",
      "outputs": [
        {
          "internalType": "bool",
          "name": "",
          "type": "bool"
        }
      ],
      "stateMutability": "nonpayable",
      "type": "function"
    },
    {
      "inputs": [],
      "name": "GetPlotCount",
      "outputs": [
        {
          "internalType": "uint256",
          "name": "_plotCount",
          "type": "uint256"
        }
      ],
      "stateMutability": "nonpayable",
      "type": "function"
    },
    {
      "inputs": [],
      "name": "GetPlotsAll",
      "outputs": [
        {
          "internalType": "bool",
          "name": "",
          "type": "bool"
        }
      ],
      "stateMutability": "nonpayable",
      "type": "function"
    },
    {
      "inputs": [
        {
          "internalType": "uint32",
          "name": "_uPlotNo",
          "type": "uint32"
        }
      ],
      "name": "GetPlotByID",
      "outputs": [
        {
          "internalType": "bool",
          "name": "",
          "type": "bool"
        }
      ],
      "stateMutability": "nonpayable",
      "type": "function"
    },
    {
      "inputs": [
        {
          "internalType": "uint32",
          "name": "_uPlotNo",
          "type": "uint32"
        },
        {
          "internalType": "uint32",
          "name": "_uPlotUnitNo",
          "type": "uint32"
        }
      ],
      "name": "GetUnitPlotByID",
      "outputs": [
        {
          "internalType": "bool",
          "name": "",
          "type": "bool"
        }
      ],
      "stateMutability": "nonpayable",
      "type": "function"
    },
    {
      "inputs": [
        {
          "internalType": "uint32",
          "name": "_uPlotNo",
          "type": "uint32"
        }
      ],
      "name": "GetPlotLeasee",
      "outputs": [
        {
          "internalType": "address",
          "name": "_leaseeAddress",
          "type": "address"
        }
      ],
      "stateMutability": "nonpayable",
      "type": "function"
    },
    {
      "inputs": [
        {
          "internalType": "uint32",
          "name": "_plotCount",
          "type": "uint32"
        }
      ],
      "name": "InitPlots",
      "outputs": [
        {
          "internalType": "bool",
          "name": "",
          "type": "bool"
        }
      ],
      "stateMutability": "nonpayable",
      "type": "function"
    },
    {
      "inputs": [
        {
          "internalType": "uint32",
          "name": "_plotID",
          "type": "uint32"
        },
        {
          "internalType": "uint32",
          "name": "_noOfUnits",
          "type": "uint32"
        },
        {
          "internalType": "bool",
          "name": "_readyForSale",
          "type": "bool"
        }
      ],
      "name": "InitPlotUnit",
      "outputs": [
        {
          "internalType": "bool",
          "name": "",
          "type": "bool"
        }
      ],
      "stateMutability": "nonpayable",
      "type": "function"
    },
    {
      "inputs": [
        {
          "internalType": "uint32",
          "name": "_plotID",
          "type": "uint32"
        },
        {
          "internalType": "uint32",
          "name": "_unitValue",
          "type": "uint32"
        }
      ],
      "name": "SetPUnitValue",
      "outputs": [
        {
          "internalType": "bool",
          "name": "",
          "type": "bool"
        }
      ],
      "stateMutability": "nonpayable",
      "type": "function"
    },
    {
      "inputs": [
        {
          "internalType": "uint32",
          "name": "_plotID",
          "type": "uint32"
        },
        {
          "internalType": "bool",
          "name": "_bReadyForSale",
          "type": "bool"
        }
      ],
      "name": "SetPlotReadyForSaleStatus",
      "outputs": [
        {
          "internalType": "bool",
          "name": "",
          "type": "bool"
        }
      ],
      "stateMutability": "nonpayable",
      "type": "function"
    },
    {
      "inputs": [
        {
          "internalType": "uint32",
          "name": "_plotID",
          "type": "uint32"
        },
        {
          "internalType": "uint32",
          "name": "_pUnitID",
          "type": "uint32"
        },
        {
          "internalType": "bool",
          "name": "_bReadyForSale",
          "type": "bool"
        }
      ],
      "name": "SetPlotUnitReadyForSaleStatus",
      "outputs": [
        {
          "internalType": "bool",
          "name": "",
          "type": "bool"
        }
      ],
      "stateMutability": "nonpayable",
      "type": "function"
    },
    {
      "inputs": [
        {
          "internalType": "uint32",
          "name": "_plotID",
          "type": "uint32"
        },
        {
          "internalType": "uint32",
          "name": "_pUnitID",
          "type": "uint32"
        },
        {
          "internalType": "uint256",
          "name": "_TxValue",
          "type": "uint256"
        },
        {
          "internalType": "address",
          "name": "_buyerAddress",
          "type": "address"
        }
      ],
      "name": "ChkConditionToBuy",
      "outputs": [
        {
          "internalType": "address",
          "name": "_presentOwner",
          "type": "address"
        },
        {
          "internalType": "uint256",
          "name": "_pUnitValue",
          "type": "uint256"
        }
      ],
      "stateMutability": "nonpayable",
      "type": "function"
    },
    {
      "inputs": [
        {
          "internalType": "uint32",
          "name": "_plotID",
          "type": "uint32"
        },
        {
          "internalType": "uint32",
          "name": "_pUnitID",
          "type": "uint32"
        },
        {
          "internalType": "address",
          "name": "_newOwner",
          "type": "address"
        }
      ],
      "name": "TransferOwnership",
      "outputs": [
        {
          "internalType": "bool",
          "name": "",
          "type": "bool"
        }
      ],
      "stateMutability": "nonpayable",
      "type": "function"
    },
    {
      "inputs": [
        {
          "internalType": "uint32",
          "name": "_PlotNo",
          "type": "uint32"
        },
        {
          "internalType": "uint32",
          "name": "_PUnitNo",
          "type": "uint32"
        },
        {
          "internalType": "address",
          "name": "_sellerAddress",
          "type": "address"
        }
      ],
      "name": "ChkConditionToSell",
      "outputs": [
        {
          "internalType": "bool",
          "name": "",
          "type": "bool"
        }
      ],
      "stateMutability": "view",
      "type": "function",
      "constant": true
    },
    {
      "inputs": [
        {
          "internalType": "uint32",
          "name": "_plotNo",
          "type": "uint32"
        }
      ],
      "name": "GetPlotUnitValue",
      "outputs": [
        {
          "internalType": "uint256",
          "name": "_PlotUnitValue",
          "type": "uint256"
        }
      ],
      "stateMutability": "view",
      "type": "function",
      "constant": true
    },
    {
      "inputs": [
        {
          "internalType": "uint32",
          "name": "_plotNo",
          "type": "uint32"
        }
      ],
      "name": "GetPlotRentValue",
      "outputs": [
        {
          "internalType": "uint256",
          "name": "_plotRentValue",
          "type": "uint256"
        }
      ],
      "stateMutability": "view",
      "type": "function",
      "constant": true
    },
    {
      "inputs": [
        {
          "internalType": "uint32",
          "name": "_plotNo",
          "type": "uint32"
        }
      ],
      "name": "GetPlotUnitCount",
      "outputs": [
        {
          "internalType": "uint32",
          "name": "_UnitOwnersCount",
          "type": "uint32"
        }
      ],
      "stateMutability": "view",
      "type": "function",
      "constant": true
    },
    {
      "inputs": [
        {
          "internalType": "uint32",
          "name": "_plotNo",
          "type": "uint32"
        },
        {
          "internalType": "uint32",
          "name": "_plotUnitNo",
          "type": "uint32"
        }
      ],
      "name": "GetPlotUnitOwner",
      "outputs": [
        {
          "internalType": "address",
          "name": "_PlotUnitOwnerAddress",
          "type": "address"
        }
      ],
      "stateMutability": "view",
      "type": "function",
      "constant": true
    },
    {
      "inputs": [
        {
          "internalType": "uint32",
          "name": "_plotNo",
          "type": "uint32"
        }
      ],
      "name": "ChkConditionToLeasee",
      "outputs": [
        {
          "internalType": "bool",
          "name": "_OkToLease",
          "type": "bool"
        }
      ],
      "stateMutability": "view",
      "type": "function",
      "constant": true
    },
    {
      "inputs": [
        {
          "internalType": "uint32",
          "name": "_plotNo",
          "type": "uint32"
        },
        {
          "internalType": "uint32",
          "name": "_leaseeDuration",
          "type": "uint32"
        },
        {
          "internalType": "address",
          "name": "_LeaseeAddress",
          "type": "address"
        }
      ],
      "name": "LeaseePlot",
      "outputs": [
        {
          "internalType": "bool",
          "name": "",
          "type": "bool"
        }
      ],
      "stateMutability": "nonpayable",
      "type": "function"
    },
    {
      "inputs": [
        {
          "internalType": "uint32",
          "name": "_plotNo",
          "type": "uint32"
        },
        {
          "internalType": "address",
          "name": "_leaseeAdd",
          "type": "address"
        }
      ],
      "name": "ChkConditionToUnLeasee",
      "outputs": [
        {
          "internalType": "bool",
          "name": "",
          "type": "bool"
        }
      ],
      "stateMutability": "view",
      "type": "function",
      "constant": true
    },
    {
      "inputs": [
        {
          "internalType": "uint32",
          "name": "_plotNo",
          "type": "uint32"
        },
        {
          "internalType": "address",
          "name": "_leaseeAdd",
          "type": "address"
        }
      ],
      "name": "UnLeasePlot",
      "outputs": [
        {
          "internalType": "bool",
          "name": "",
          "type": "bool"
        }
      ],
      "stateMutability": "nonpayable",
      "type": "function"
    }
  ],
  "bytecode": "0x608060405234801561001057600080fd5b50336000806101000a81548173ffffffffffffffffffffffffffffffffffffffff021916908373ffffffffffffffffffffffffffffffffffffffff1602179055506000600160006101000a81548173ffffffffffffffffffffffffffffffffffffffff021916908373ffffffffffffffffffffffffffffffffffffffff1602179055506132d3806100a26000396000f3fe608060405234801561001057600080fd5b50600436106101735760003560e01c806349eeb907116100de578063b5e4edc811610097578063e1842bf711610071578063e1842bf714610513578063e3f7c71f14610543578063f2f90d6f14610573578063fc7fe51d146105a357610173565b8063b5e4edc814610494578063c460632b146104c5578063d571d4ba146104e357610173565b806349eeb9071461039457806354a917a3146103b25780637ad020c6146103e257806392cb86c914610412578063983331f314610430578063a3f9b7fb1461046057610173565b80633e8fbc2c116101305780633e8fbc2c146102865780633f105abc146102b6578063403d6299146102e657806346b7aeef1461031657806348683a5114610346578063489691961461037657610173565b806305f35ddf146101785780630873f4d21461019657806308de3460146101c657806313f2f6b9146101f6578063290d21a9146102265780633145507114610256575b600080fd5b6101806105d3565b60405161018d9190613034565b60405180910390f35b6101b060048036038101906101ab9190612add565b610694565b6040516101bd9190613034565b60405180910390f35b6101e060048036038101906101db9190612bba565b61069f565b6040516101ed9190613034565b60405180910390f35b610210600480360381019061020b9190612add565b61079f565b60405161021d919061316a565b60405180910390f35b610240600480360381019061023b9190612add565b6107dd565b60405161024d9190612f8f565b60405180910390f35b610270600480360381019061026b9190612b7e565b6108a6565b60405161027d9190613034565b60405180910390f35b6102a0600480360381019061029b9190612b7e565b610970565b6040516102ad9190612f8f565b60405180910390f35b6102d060048036038101906102cb9190612add565b6109df565b6040516102dd9190613034565b60405180910390f35b61030060048036038101906102fb9190612add565b61102c565b60405161030d919061314f565b60405180910390f35b610330600480360381019061032b9190612b06565b6110a5565b60405161033d9190613034565b60405180910390f35b610360600480360381019061035b9190612b06565b611163565b60405161036d9190613034565b60405180910390f35b61037e611242565b60405161038b919061316a565b60405180910390f35b61039c611258565b6040516103a9919061314f565b60405180910390f35b6103cc60048036038101906103c79190612c09565b611265565b6040516103d99190613034565b60405180910390f35b6103fc60048036038101906103f79190612b42565b61168d565b6040516104099190613034565b60405180910390f35b61041a611750565b6040516104279190613034565b60405180910390f35b61044a60048036038101906104459190612bba565b611bdd565b6040516104579190613034565b60405180910390f35b61047a60048036038101906104759190612ab4565b611cbc565b60405161048b959493929190613185565b60405180910390f35b6104ae60048036038101906104a99190612c58565b611d4f565b6040516104bc92919061300b565b60405180910390f35b6104cd61203e565b6040516104da9190612f8f565b60405180910390f35b6104fd60048036038101906104f89190612add565b612063565b60405161050a9190613034565b60405180910390f35b61052d60048036038101906105289190612c09565b6124cd565b60405161053a9190613034565b60405180910390f35b61055d60048036038101906105589190612bba565b612536565b60405161056a9190613034565b60405180910390f35b61058d60048036038101906105889190612b7e565b612764565b60405161059a9190613034565b60405180910390f35b6105bd60048036038101906105b89190612add565b612a32565b6040516105ca919061314f565b60405180910390f35b60008060028054905090505b600081111561068c5760028054806105f357fe5b6001900381819060005260206000209060040201600080820160006101000a81549063ffffffff02191690556000820160046101000a81549063ffffffff021916905560018201600090556002820160006101000a81549073ffffffffffffffffffffffffffffffffffffffff02191690556002820160146101000a81549063ffffffff021916905550509055806001900390506105df565b506001905090565b600060019050919050565b6000806106ab85610694565b9050806106ed576040517f08c379a00000000000000000000000000000000000000000000000000000000081526004016106e4906130ef565b60405180910390fd5b8260028663ffffffff168154811061070157fe5b906000526020600020906004020160020160006101000a81548173ffffffffffffffffffffffffffffffffffffffff021916908373ffffffffffffffffffffffffffffffffffffffff1602179055508360028663ffffffff168154811061076457fe5b906000526020600020906004020160020160146101000a81548163ffffffff021916908363ffffffff16021790555060019150509392505050565b600060028263ffffffff16815481106107b457fe5b906000526020600020906004020160000160049054906101000a900463ffffffff169050919050565b60007f23a6df14d9a5b39e80b490ebe5c5f06fb7b5bc48489d96d8633d50657331725360028363ffffffff168154811061081357fe5b906000526020600020906004020160020160009054906101000a900473ffffffffffffffffffffffffffffffffffffffff166040516108529190612f8f565b60405180910390a160028263ffffffff168154811061086d57fe5b906000526020600020906004020160020160009054906101000a900473ffffffffffffffffffffffffffffffffffffffff169050919050565b60008060009054906101000a900473ffffffffffffffffffffffffffffffffffffffff1673ffffffffffffffffffffffffffffffffffffffff163373ffffffffffffffffffffffffffffffffffffffff1614610937576040517f08c379a000000000000000000000000000000000000000000000000000000000815260040161092e9061304f565b60405180910390fd5b8163ffffffff1660028463ffffffff168154811061095157fe5b9060005260206000209060040201600101819055506001905092915050565b600060028363ffffffff168154811061098557fe5b906000526020600020906004020160030160008363ffffffff1663ffffffff16815260200190815260200160002060000160009054906101000a900473ffffffffffffffffffffffffffffffffffffffff16905092915050565b60008060009054906101000a900473ffffffffffffffffffffffffffffffffffffffff1673ffffffffffffffffffffffffffffffffffffffff163373ffffffffffffffffffffffffffffffffffffffff1614610a70576040517f08c379a0000000000000000000000000000000000000000000000000000000008152600401610a679061304f565b60405180910390fd5b81600060146101000a81548163ffffffff021916908363ffffffff160217905550610a996105d3565b506000600360000160006101000a81548163ffffffff021916908363ffffffff1602179055506000600360000160046101000a81548163ffffffff021916908363ffffffff16021790555060006003600101819055506002600390806001815401808255809150506001900390600052602060002090600402016000909190919091506000820160009054906101000a900463ffffffff168160000160006101000a81548163ffffffff021916908363ffffffff1602179055506000820160049054906101000a900463ffffffff168160000160046101000a81548163ffffffff021916908363ffffffff160217905550600182015481600101556002820160009054906101000a900473ffffffffffffffffffffffffffffffffffffffff168160020160006101000a81548173ffffffffffffffffffffffffffffffffffffffff021916908373ffffffffffffffffffffffffffffffffffffffff1602179055506002820160149054906101000a900463ffffffff168160020160146101000a81548163ffffffff021916908363ffffffff16021790555050506000600190505b600060149054906101000a900463ffffffff1663ffffffff168163ffffffff16116110225780600360000160006101000a81548163ffffffff021916908363ffffffff1602179055506000600360000160046101000a81548163ffffffff021916908363ffffffff1602179055506000600360010181905550600160009054906101000a900473ffffffffffffffffffffffffffffffffffffffff16600360020160006101000a81548173ffffffffffffffffffffffffffffffffffffffff021916908373ffffffffffffffffffffffffffffffffffffffff1602179055506040518060c001604052803373ffffffffffffffffffffffffffffffffffffffff1681526020013373ffffffffffffffffffffffffffffffffffffffff168152602001600063ffffffff168152602001600063ffffffff168152602001600063ffffffff168152602001600015158152506003800160008363ffffffff1663ffffffff16815260200190815260200160002060008201518160000160006101000a81548173ffffffffffffffffffffffffffffffffffffffff021916908373ffffffffffffffffffffffffffffffffffffffff16021790555060208201518160010160006101000a81548173ffffffffffffffffffffffffffffffffffffffff021916908373ffffffffffffffffffffffffffffffffffffffff16021790555060408201518160010160146101000a81548163ffffffff021916908363ffffffff16021790555060608201518160010160186101000a81548163ffffffff021916908363ffffffff160217905550608082015181600101601c6101000a81548163ffffffff021916908363ffffffff16021790555060a08201518160020160006101000a81548160ff0219169083151502179055509050506002600390806001815401808255809150506001900390600052602060002090600402016000909190919091506000820160009054906101000a900463ffffffff168160000160006101000a81548163ffffffff021916908363ffffffff1602179055506000820160049054906101000a900463ffffffff168160000160046101000a81548163ffffffff021916908363ffffffff160217905550600182015481600101556002820160009054906101000a900473ffffffffffffffffffffffffffffffffffffffff168160020160006101000a81548173ffffffffffffffffffffffffffffffffffffffff021916908373ffffffffffffffffffffffffffffffffffffffff1602179055506002820160149054906101000a900463ffffffff168160020160146101000a81548163ffffffff021916908363ffffffff1602179055505050806001019050610c3b565b5060019050919050565b60008060028363ffffffff168154811061104257fe5b906000526020600020906004020160000160049054906101000a900463ffffffff1663ffffffff1660028463ffffffff168154811061107d57fe5b906000526020600020906004020160010154029050600a818161109c57fe5b04915050919050565b60008173ffffffffffffffffffffffffffffffffffffffff1660028463ffffffff16815481106110d157fe5b906000526020600020906004020160020160009054906101000a900473ffffffffffffffffffffffffffffffffffffffff1673ffffffffffffffffffffffffffffffffffffffff1614611159576040517f08c379a0000000000000000000000000000000000000000000000000000000008152600401611150906130cf565b60405180910390fd5b6001905092915050565b60008061117084846110a5565b9050806111b2576040517f08c379a00000000000000000000000000000000000000000000000000000000081526004016111a99061306f565b60405180910390fd5b600160009054906101000a900473ffffffffffffffffffffffffffffffffffffffff1660028563ffffffff16815481106111e857fe5b906000526020600020906004020160020160006101000a81548173ffffffffffffffffffffffffffffffffffffffff021916908373ffffffffffffffffffffffffffffffffffffffff160217905550600191505092915050565b600060149054906101000a900463ffffffff1681565b6000600280549050905090565b60008060009054906101000a900473ffffffffffffffffffffffffffffffffffffffff1673ffffffffffffffffffffffffffffffffffffffff163373ffffffffffffffffffffffffffffffffffffffff16146112f6576040517f08c379a00000000000000000000000000000000000000000000000000000000081526004016112ed9061304f565b60405180910390fd5b600080600190505b8463ffffffff168163ffffffff161161168057806064870201915033600760000160006101000a81548173ffffffffffffffffffffffffffffffffffffffff021916908373ffffffffffffffffffffffffffffffffffffffff160217905550600160009054906101000a900473ffffffffffffffffffffffffffffffffffffffff16600760010160006101000a81548173ffffffffffffffffffffffffffffffffffffffff021916908373ffffffffffffffffffffffffffffffffffffffff16021790555085600760010160146101000a81548163ffffffff021916908363ffffffff16021790555080600760010160186101000a81548163ffffffff021916908363ffffffff160217905550816007600101601c6101000a81548163ffffffff021916908363ffffffff16021790555083600760020160006101000a81548160ff021916908315150217905550600760028763ffffffff168154811061146157fe5b906000526020600020906004020160030160008363ffffffff1663ffffffff1681526020019081526020016000206000820160009054906101000a900473ffffffffffffffffffffffffffffffffffffffff168160000160006101000a81548173ffffffffffffffffffffffffffffffffffffffff021916908373ffffffffffffffffffffffffffffffffffffffff1602179055506001820160009054906101000a900473ffffffffffffffffffffffffffffffffffffffff168160010160006101000a81548173ffffffffffffffffffffffffffffffffffffffff021916908373ffffffffffffffffffffffffffffffffffffffff1602179055506001820160149054906101000a900463ffffffff168160010160146101000a81548163ffffffff021916908363ffffffff1602179055506001820160189054906101000a900463ffffffff168160010160186101000a81548163ffffffff021916908363ffffffff16021790555060018201601c9054906101000a900463ffffffff1681600101601c6101000a81548163ffffffff021916908363ffffffff1602179055506002820160009054906101000a900460ff168160020160006101000a81548160ff0219169083151502179055509050508460028763ffffffff168154811061164657fe5b906000526020600020906004020160000160046101000a81548163ffffffff021916908363ffffffff1602179055508060010190506112fe565b5060019150509392505050565b60008060028463ffffffff16815481106116a357fe5b906000526020600020906004020160000160049054906101000a900463ffffffff1663ffffffff16905060005b818163ffffffff1611611744578360028663ffffffff16815481106116f157fe5b906000526020600020906004020160030160008363ffffffff1663ffffffff16815260200190815260200160002060020160006101000a81548160ff0219169083151502179055508060010190506116d0565b50600191505092915050565b600080600190505b6002805490508163ffffffff161015611bd5577f2bf1d058852f96d1bfaf3da264207858424c000afc0244b9eebf48250ea9904560028263ffffffff168154811061179f57fe5b906000526020600020906004020160000160009054906101000a900463ffffffff1660028363ffffffff16815481106117d457fe5b906000526020600020906004020160000160049054906101000a900463ffffffff1660028463ffffffff168154811061180957fe5b90600052602060002090600402016001015460028563ffffffff168154811061182e57fe5b906000526020600020906004020160020160009054906101000a900473ffffffffffffffffffffffffffffffffffffffff1660028663ffffffff168154811061187357fe5b906000526020600020906004020160020160149054906101000a900463ffffffff166040516118a6959493929190613185565b60405180910390a16000600190505b60028263ffffffff16815481106118c857fe5b906000526020600020906004020160000160049054906101000a900463ffffffff1663ffffffff168163ffffffff1611611bc95760028263ffffffff168154811061190f57fe5b906000526020600020906004020160030160008263ffffffff1663ffffffff16815260200190815260200160002060076000820160009054906101000a900473ffffffffffffffffffffffffffffffffffffffff168160000160006101000a81548173ffffffffffffffffffffffffffffffffffffffff021916908373ffffffffffffffffffffffffffffffffffffffff1602179055506001820160009054906101000a900473ffffffffffffffffffffffffffffffffffffffff168160010160006101000a81548173ffffffffffffffffffffffffffffffffffffffff021916908373ffffffffffffffffffffffffffffffffffffffff1602179055506001820160149054906101000a900463ffffffff168160010160146101000a81548163ffffffff021916908363ffffffff1602179055506001820160189054906101000a900463ffffffff168160010160186101000a81548163ffffffff021916908363ffffffff16021790555060018201601c9054906101000a900463ffffffff1681600101601c6101000a81548163ffffffff021916908363ffffffff1602179055506002820160009054906101000a900460ff168160020160006101000a81548160ff0219169083151502179055509050507f6fa7a08a09b5611156378c4d76e1a76d7d89df9a3a27a85f92ffe200ddc731f6600760000160009054906101000a900473ffffffffffffffffffffffffffffffffffffffff16600760010160009054906101000a900473ffffffffffffffffffffffffffffffffffffffff16600760010160149054906101000a900463ffffffff16600760010160189054906101000a900463ffffffff166007600101601c9054906101000a900463ffffffff16600760020160009054906101000a900460ff16604051611bb696959493929190612faa565b60405180910390a18060010190506118b5565b50806001019050611758565b506001905090565b60008173ffffffffffffffffffffffffffffffffffffffff1660028563ffffffff1681548110611c0957fe5b906000526020600020906004020160030160008563ffffffff1663ffffffff16815260200190815260200160002060000160009054906101000a900473ffffffffffffffffffffffffffffffffffffffff1673ffffffffffffffffffffffffffffffffffffffff1614611cb1576040517f08c379a0000000000000000000000000000000000000000000000000000000008152600401611ca89061310f565b60405180910390fd5b600190509392505050565b60028181548110611cc957fe5b90600052602060002090600402016000915090508060000160009054906101000a900463ffffffff16908060000160049054906101000a900463ffffffff16908060010154908060020160009054906101000a900473ffffffffffffffffffffffffffffffffffffffff16908060020160149054906101000a900463ffffffff16905085565b6000806001151560028763ffffffff1681548110611d6957fe5b906000526020600020906004020160030160008763ffffffff1663ffffffff16815260200190815260200160002060020160009054906101000a900460ff16151514611dea576040517f08c379a0000000000000000000000000000000000000000000000000000000008152600401611de1906130af565b60405180910390fd5b60028663ffffffff1681548110611dfd57fe5b906000526020600020906004020160010154841015611e51576040517f08c379a0000000000000000000000000000000000000000000000000000000008152600401611e489061308f565b60405180910390fd5b8273ffffffffffffffffffffffffffffffffffffffff1660028763ffffffff1681548110611e7b57fe5b906000526020600020906004020160030160008763ffffffff1663ffffffff16815260200190815260200160002060000160009054906101000a900473ffffffffffffffffffffffffffffffffffffffff1673ffffffffffffffffffffffffffffffffffffffff161415611f24576040517f08c379a0000000000000000000000000000000000000000000000000000000008152600401611f1b9061312f565b60405180910390fd5b8260028763ffffffff1681548110611f3857fe5b906000526020600020906004020160030160008763ffffffff1663ffffffff16815260200190815260200160002060010160006101000a81548173ffffffffffffffffffffffffffffffffffffffff021916908373ffffffffffffffffffffffffffffffffffffffff16021790555060028663ffffffff1681548110611fba57fe5b906000526020600020906004020160030160008663ffffffff1663ffffffff16815260200190815260200160002060000160009054906101000a900473ffffffffffffffffffffffffffffffffffffffff1660028763ffffffff168154811061201f57fe5b9060005260206000209060040201600101549150915094509492505050565b6000809054906101000a900473ffffffffffffffffffffffffffffffffffffffff1681565b60007f2bf1d058852f96d1bfaf3da264207858424c000afc0244b9eebf48250ea9904560028363ffffffff168154811061209957fe5b906000526020600020906004020160000160009054906101000a900463ffffffff1660028463ffffffff16815481106120ce57fe5b906000526020600020906004020160000160049054906101000a900463ffffffff1660028563ffffffff168154811061210357fe5b90600052602060002090600402016001015460028663ffffffff168154811061212857fe5b906000526020600020906004020160020160009054906101000a900473ffffffffffffffffffffffffffffffffffffffff1660028763ffffffff168154811061216d57fe5b906000526020600020906004020160020160149054906101000a900463ffffffff166040516121a0959493929190613185565b60405180910390a16000600190505b60028363ffffffff16815481106121c257fe5b906000526020600020906004020160000160049054906101000a900463ffffffff1663ffffffff168163ffffffff16116124c35760028363ffffffff168154811061220957fe5b906000526020600020906004020160030160008263ffffffff1663ffffffff16815260200190815260200160002060076000820160009054906101000a900473ffffffffffffffffffffffffffffffffffffffff168160000160006101000a81548173ffffffffffffffffffffffffffffffffffffffff021916908373ffffffffffffffffffffffffffffffffffffffff1602179055506001820160009054906101000a900473ffffffffffffffffffffffffffffffffffffffff168160010160006101000a81548173ffffffffffffffffffffffffffffffffffffffff021916908373ffffffffffffffffffffffffffffffffffffffff1602179055506001820160149054906101000a900463ffffffff168160010160146101000a81548163ffffffff021916908363ffffffff1602179055506001820160189054906101000a900463ffffffff168160010160186101000a81548163ffffffff021916908363ffffffff16021790555060018201601c9054906101000a900463ffffffff1681600101601c6101000a81548163ffffffff021916908363ffffffff1602179055506002820160009054906101000a900460ff168160020160006101000a81548160ff0219169083151502179055509050507f6fa7a08a09b5611156378c4d76e1a76d7d89df9a3a27a85f92ffe200ddc731f6600760000160009054906101000a900473ffffffffffffffffffffffffffffffffffffffff16600760010160009054906101000a900473ffffffffffffffffffffffffffffffffffffffff16600760010160149054906101000a900463ffffffff16600760010160189054906101000a900463ffffffff166007600101601c9054906101000a900463ffffffff16600760020160009054906101000a900460ff166040516124b096959493929190612faa565b60405180910390a18060010190506121af565b5060019050919050565b60008160028563ffffffff16815481106124e357fe5b906000526020600020906004020160030160008563ffffffff1663ffffffff16815260200190815260200160002060020160006101000a81548160ff021916908315150217905550600190509392505050565b60008173ffffffffffffffffffffffffffffffffffffffff1660028563ffffffff168154811061256257fe5b906000526020600020906004020160030160008563ffffffff1663ffffffff16815260200190815260200160002060010160009054906101000a900473ffffffffffffffffffffffffffffffffffffffff1673ffffffffffffffffffffffffffffffffffffffff16146125d457600080fd5b8160028563ffffffff16815481106125e857fe5b906000526020600020906004020160030160008563ffffffff1663ffffffff16815260200190815260200160002060000160006101000a81548173ffffffffffffffffffffffffffffffffffffffff021916908373ffffffffffffffffffffffffffffffffffffffff160217905550600160009054906101000a900473ffffffffffffffffffffffffffffffffffffffff1660028563ffffffff168154811061268d57fe5b906000526020600020906004020160030160008563ffffffff1663ffffffff16815260200190815260200160002060010160006101000a81548173ffffffffffffffffffffffffffffffffffffffff021916908373ffffffffffffffffffffffffffffffffffffffff160217905550600060028563ffffffff168154811061271157fe5b906000526020600020906004020160030160008563ffffffff1663ffffffff16815260200190815260200160002060020160006101000a81548160ff021916908315150217905550600190509392505050565b600060028363ffffffff168154811061277957fe5b906000526020600020906004020160030160008363ffffffff1663ffffffff16815260200190815260200160002060076000820160009054906101000a900473ffffffffffffffffffffffffffffffffffffffff168160000160006101000a81548173ffffffffffffffffffffffffffffffffffffffff021916908373ffffffffffffffffffffffffffffffffffffffff1602179055506001820160009054906101000a900473ffffffffffffffffffffffffffffffffffffffff168160010160006101000a81548173ffffffffffffffffffffffffffffffffffffffff021916908373ffffffffffffffffffffffffffffffffffffffff1602179055506001820160149054906101000a900463ffffffff168160010160146101000a81548163ffffffff021916908363ffffffff1602179055506001820160189054906101000a900463ffffffff168160010160186101000a81548163ffffffff021916908363ffffffff16021790555060018201601c9054906101000a900463ffffffff1681600101601c6101000a81548163ffffffff021916908363ffffffff1602179055506002820160009054906101000a900460ff168160020160006101000a81548160ff0219169083151502179055509050507f6fa7a08a09b5611156378c4d76e1a76d7d89df9a3a27a85f92ffe200ddc731f6600760000160009054906101000a900473ffffffffffffffffffffffffffffffffffffffff16600760010160009054906101000a900473ffffffffffffffffffffffffffffffffffffffff16600760010160149054906101000a900463ffffffff16600760010160189054906101000a900463ffffffff166007600101601c9054906101000a900463ffffffff16600760020160009054906101000a900460ff16604051612a2096959493929190612faa565b60405180910390a16001905092915050565b600060028263ffffffff1681548110612a4757fe5b9060005260206000209060040201600101549050919050565b600081359050612a6f81613241565b92915050565b600081359050612a8481613258565b92915050565b600081359050612a998161326f565b92915050565b600081359050612aae81613286565b92915050565b600060208284031215612ac657600080fd5b6000612ad484828501612a8a565b91505092915050565b600060208284031215612aef57600080fd5b6000612afd84828501612a9f565b91505092915050565b60008060408385031215612b1957600080fd5b6000612b2785828601612a9f565b9250506020612b3885828601612a60565b9150509250929050565b60008060408385031215612b5557600080fd5b6000612b6385828601612a9f565b9250506020612b7485828601612a75565b9150509250929050565b60008060408385031215612b9157600080fd5b6000612b9f85828601612a9f565b9250506020612bb085828601612a9f565b9150509250929050565b600080600060608486031215612bcf57600080fd5b6000612bdd86828701612a9f565b9350506020612bee86828701612a9f565b9250506040612bff86828701612a60565b9150509250925092565b600080600060608486031215612c1e57600080fd5b6000612c2c86828701612a9f565b9350506020612c3d86828701612a9f565b9250506040612c4e86828701612a75565b9150509250925092565b60008060008060808587031215612c6e57600080fd5b6000612c7c87828801612a9f565b9450506020612c8d87828801612a9f565b9350506040612c9e87828801612a8a565b9250506060612caf87828801612a60565b91505092959194509250565b612cc4816131e9565b82525050565b612cd3816131fb565b82525050565b6000612ce66028836131d8565b91507f5065726d697373696f6e2044656e6965643a20596f7520617265206e6f74207460008301527f6865206f776e65720000000000000000000000000000000000000000000000006020830152604082019050919050565b6000612d4c602c836131d8565b91507f20596f7520617265206e6f7420746865206c656173656520746f20756e6c656160008301527f7365207468697320706c6f7400000000000000000000000000000000000000006020830152604082019050919050565b6000612db2601c836131d8565b91507f4574686572206c65737320746f2042757920506c6f742050756e6974000000006000830152602082019050919050565b6000612df26018836131d8565b91507f50556e6974206e6f7420726561647920666f722053616c6500000000000000006000830152602082019050919050565b6000612e32602d836131d8565b91507f596f7520646f206e6f74206861766520746865207065726d697373696f6e207460008301527f6f20556e4c65617365506c6f74000000000000000000000000000000000000006020830152604082019050919050565b6000612e986020836131d8565b91507f54686520706c6f74206973206e6f7420726561647920666f72204c65617365656000830152602082019050919050565b6000612ed86028836131d8565b91507f596f752063616e206e6f74206f776e657220616e642068656e63652063616e2060008301527f6e6f742073656c6c0000000000000000000000000000000000000000000000006020830152604082019050919050565b6000612f3e6018836131d8565b91507f204f7765726e20616e642062757965722069732073616d6500000000000000006000830152602082019050919050565b612f7a81613227565b82525050565b612f8981613231565b82525050565b6000602082019050612fa46000830184612cbb565b92915050565b600060c082019050612fbf6000830189612cbb565b612fcc6020830188612cbb565b612fd96040830187612f80565b612fe66060830186612f80565b612ff36080830185612f80565b61300060a0830184612cca565b979650505050505050565b60006040820190506130206000830185612cbb565b61302d6020830184612f71565b9392505050565b60006020820190506130496000830184612cca565b92915050565b6000602082019050818103600083015261306881612cd9565b9050919050565b6000602082019050818103600083015261308881612d3f565b9050919050565b600060208201905081810360008301526130a881612da5565b9050919050565b600060208201905081810360008301526130c881612de5565b9050919050565b600060208201905081810360008301526130e881612e25565b9050919050565b6000602082019050818103600083015261310881612e8b565b9050919050565b6000602082019050818103600083015261312881612ecb565b9050919050565b6000602082019050818103600083015261314881612f31565b9050919050565b60006020820190506131646000830184612f71565b92915050565b600060208201905061317f6000830184612f80565b92915050565b600060a08201905061319a6000830188612f80565b6131a76020830187612f80565b6131b46040830186612f71565b6131c16060830185612cbb565b6131ce6080830184612f80565b9695505050505050565b600082825260208201905092915050565b60006131f482613207565b9050919050565b60008115159050919050565b600073ffffffffffffffffffffffffffffffffffffffff82169050919050565b6000819050919050565b600063ffffffff82169050919050565b61324a816131e9565b811461325557600080fd5b50565b613261816131fb565b811461326c57600080fd5b50565b61327881613227565b811461328357600080fd5b50565b61328f81613231565b811461329a57600080fd5b5056fea26469706673582212200d1006f8933976c5c15ae9ed459f4247139ad40b794004a6332fb1ae732019bc64736f6c63430006060033",
  "immutableReferences": {},
  "source": "pragma solidity >=0.4.21 <0.7.0;\npragma experimental ABIEncoderV2;\n\n\ncontract Plot{\n    address public att_aOwner;\n    uint32 public att_uPlotCount;\n    address att_aNullAdd;\n    \n    struct StructPUnit{\n        address aInvestorAddr;\n        address aNewBuyerAddr;\n        uint32 uPlotNo;\n        uint32 uPUnitNo;\n        uint32 uPUnitID;\n        bool bReadyForSale;\n    }\n\n    struct StructPlot {\n        uint32 uPlotNo;\n        uint32 uPUnitCount;\n        uint256 uPUnitValue;\n        address aLeaseeAddr;\n        uint32 uLeaseeDuration;\n        mapping(uint32=>StructPUnit) map_stPUnit;\n    }\n    StructPlot[] public att_arr_stPlot;\n\n    constructor() public{\n        att_aOwner = msg.sender;\n        att_aNullAdd = address(0x0);\n    }\n    \n    \n    \n    StructPlot att_stPlot;\n    StructPUnit  att_stPUnit;\n    //Generic function to get Land details\n\n    function ResetPlots() public returns (bool){\n        for (uint count = att_arr_stPlot.length ; count > 0 ; -- count){\n            att_arr_stPlot.pop();\n        }\n        return true;\n    }\n\n    function GetPlotCount() public returns(uint _plotCount){\n        return att_arr_stPlot.length;\n    }\n    \n    event debugListPlots( uint32 _uPlotNo, uint32 _uPUnitCount, uint256 _uPUnitValue, address _aLeaseeAddr, uint32 _uLeaseeDuration);\n    event debugListPlotsUnit( address _aInvestorAddr, address aNewBuyerAddr, uint32 uPlotNo, uint32 uPUnitNo, uint32 uPUnitID, bool bReadyForSale);\n    \n    function GetPlotsAll() public returns(bool){\n        for (uint32 pcount=1; pcount < att_arr_stPlot.length; ++pcount){\n            emit debugListPlots(att_arr_stPlot[pcount].uPlotNo, att_arr_stPlot[pcount].uPUnitCount, \n                    att_arr_stPlot[pcount].uPUnitValue, att_arr_stPlot[pcount].aLeaseeAddr, att_arr_stPlot[pcount].uLeaseeDuration);\n    \n            for (uint32 pucount=1; pucount <= att_arr_stPlot[pcount].uPUnitCount;++pucount ){\n                att_stPUnit = att_arr_stPlot[pcount].map_stPUnit[pucount];\n                emit debugListPlotsUnit(att_stPUnit.aInvestorAddr, att_stPUnit.aNewBuyerAddr, att_stPUnit.uPlotNo,\n                        att_stPUnit.uPUnitNo, att_stPUnit.uPUnitID, att_stPUnit.bReadyForSale);\n            }\n            \n        }\n        return true;\n    }\n    \n    function GetPlotByID(uint32 _uPlotNo) public returns(bool ){\n        emit debugListPlots(att_arr_stPlot[_uPlotNo].uPlotNo, att_arr_stPlot[_uPlotNo].uPUnitCount, \n                att_arr_stPlot[_uPlotNo].uPUnitValue, att_arr_stPlot[_uPlotNo].aLeaseeAddr, att_arr_stPlot[_uPlotNo].uLeaseeDuration);\n        for (uint32 pucount=1; pucount <= att_arr_stPlot[_uPlotNo].uPUnitCount;++pucount ){\n                att_stPUnit = att_arr_stPlot[_uPlotNo].map_stPUnit[pucount];\n                emit debugListPlotsUnit(att_stPUnit.aInvestorAddr, att_stPUnit.aNewBuyerAddr, att_stPUnit.uPlotNo,\n                        att_stPUnit.uPUnitNo, att_stPUnit.uPUnitID, att_stPUnit.bReadyForSale);\n            }\n        return true;\n    }\n    \n    function GetUnitPlotByID(uint32 _uPlotNo, uint32 _uPlotUnitNo) public returns(bool ){\n        att_stPUnit = att_arr_stPlot[_uPlotNo].map_stPUnit[_uPlotUnitNo];\n        emit debugListPlotsUnit(att_stPUnit.aInvestorAddr, att_stPUnit.aNewBuyerAddr, att_stPUnit.uPlotNo,\n                        att_stPUnit.uPUnitNo, att_stPUnit.uPUnitID, att_stPUnit.bReadyForSale);\n        return true;\n    }\n    event debugGetPlotLeasee(address _LeaseeAddress);\n    function GetPlotLeasee(uint32 _uPlotNo) public returns(address _leaseeAddress){\n        emit debugGetPlotLeasee(att_arr_stPlot[_uPlotNo].aLeaseeAddr);\n        return att_arr_stPlot[_uPlotNo].aLeaseeAddr;\n    }\n    //Land owner functionality\n    modifier OnlyLandOwner(){\n        require (msg.sender == att_aOwner, \"Permission Denied: You are not the owner\");\n        _;\n    }\n    \n    function InitPlots(uint32 _plotCount) external OnlyLandOwner returns(bool){\n        att_uPlotCount = _plotCount;\n        ResetPlots();\n        att_stPlot.uPlotNo = 0;\n        att_stPlot.uPUnitCount = 0;\n        att_stPlot.uPUnitValue = 0;\n        \n        att_arr_stPlot.push(att_stPlot );\n\n        for (uint32 count=1; count <= att_uPlotCount; ++count){\n            att_stPlot.uPlotNo = count;\n            att_stPlot.uPUnitCount = 0;\n            att_stPlot.uPUnitValue = 0;\n            att_stPlot.aLeaseeAddr = att_aNullAdd;\n            att_stPlot.map_stPUnit[count] = StructPUnit(msg.sender, msg.sender, 0,0,0,false);\n            att_arr_stPlot.push(att_stPlot);\n            }\n    \n        return true;\n    }\n   \n    function InitPlotUnit(uint32 _plotID, uint32 _noOfUnits, bool _readyForSale) external OnlyLandOwner returns(bool){\n        uint32 temp_uPlotUnitID;\n        \n                    \n        for (uint32 count=1; count <= _noOfUnits; ++count){\n            temp_uPlotUnitID = _plotID*100 + count;\n            \n            att_stPUnit.aInvestorAddr = msg.sender;\n            att_stPUnit.aNewBuyerAddr = att_aNullAdd;\n            att_stPUnit.uPlotNo = _plotID;\n            att_stPUnit.uPUnitNo = count;\n            att_stPUnit.uPUnitID = temp_uPlotUnitID;\n            att_stPUnit.bReadyForSale= _readyForSale;\n            \n            att_arr_stPlot[_plotID].map_stPUnit[count]= att_stPUnit;\n            att_arr_stPlot[_plotID].uPUnitCount = _noOfUnits;\n        }\n        return true;\n    }\n\n    function SetPUnitValue(uint32 _plotID, uint32 _unitValue) external OnlyLandOwner returns(bool){\n        att_arr_stPlot[_plotID].uPUnitValue = _unitValue;\n        return true;\n    }\n\n    function SetPlotReadyForSaleStatus(uint32 _plotID, bool _bReadyForSale) external returns(bool){\n        uint temp_uPUnitCount;\n        temp_uPUnitCount = att_arr_stPlot[_plotID].uPUnitCount;\n        for ( uint32 count; count <= temp_uPUnitCount; ++count){\n            att_arr_stPlot[_plotID].map_stPUnit[count].bReadyForSale = _bReadyForSale;\n        }\n        return true;\n    }\n    \n    function SetPlotUnitReadyForSaleStatus(uint32 _plotID,uint32 _pUnitID ,bool _bReadyForSale)public returns(bool){\n        att_arr_stPlot[_plotID].map_stPUnit[_pUnitID].bReadyForSale = _bReadyForSale;\n        return true;\n    }\n\n    // Investors required functionality\n    function ChkConditionToBuy (uint32 _plotID, uint32 _pUnitID, uint256 _TxValue, address _buyerAddress ) \n                                            public returns(address _presentOwner, uint256 _pUnitValue){\n        require(att_arr_stPlot[_plotID].map_stPUnit[_pUnitID].bReadyForSale == true, \"PUnit not ready for Sale\"); //condition to Sell\n        require(_TxValue >= att_arr_stPlot[_plotID].uPUnitValue, \"Ether less to Buy Plot Punit\"); //condition to buy\n        require(att_arr_stPlot[_plotID].map_stPUnit[_pUnitID].aInvestorAddr != _buyerAddress, \" Owern and buyer is same\" );\n        //new buyer adress\n        att_arr_stPlot[_plotID].map_stPUnit[_pUnitID].aNewBuyerAddr = _buyerAddress;\n        //Transfer the ownership of the Plot uPUnit\n        return (att_arr_stPlot[_plotID].map_stPUnit[_pUnitID].aInvestorAddr, att_arr_stPlot[_plotID].uPUnitValue);\n    }\n    \n    function TransferOwnership (uint32 _plotID, uint32 _pUnitID, address _newOwner) public returns(bool){\n        require(att_arr_stPlot[_plotID].map_stPUnit[_pUnitID].aNewBuyerAddr == _newOwner);\n        \n        //Transfer the ownership of the Plot uPUnit\n        att_arr_stPlot[_plotID].map_stPUnit[_pUnitID].aInvestorAddr = _newOwner;\n        att_arr_stPlot[_plotID].map_stPUnit[_pUnitID].aNewBuyerAddr = att_aNullAdd;\n        att_arr_stPlot[_plotID].map_stPUnit[_pUnitID].bReadyForSale = false;\n        return true;\n    }\n    \n    function ChkConditionToSell(uint32 _PlotNo, uint32 _PUnitNo, address _sellerAddress) public view returns(bool){\n        require(att_arr_stPlot[_PlotNo].map_stPUnit[_PUnitNo].aInvestorAddr == _sellerAddress, \"You can not owner and hence can not sell\");\n        return true;\n    }\n    \n    // General  required functionality\n    function GetPlotUnitValue(uint32 _plotNo) public view returns(uint256 _PlotUnitValue){\n        return(att_arr_stPlot[_plotNo].uPUnitValue);\n    }\n\n    function GetPlotRentValue(uint32 _plotNo) public view returns (uint256 _plotRentValue){\n        uint256 temp_uPlotRentValue = (att_arr_stPlot[_plotNo].uPUnitValue *  att_arr_stPlot[_plotNo].uPUnitCount);\n        return(temp_uPlotRentValue/10);\n    }\n    \n    function GetPlotUnitCount(uint32 _plotNo) public view returns(uint32 _UnitOwnersCount){\n        return att_arr_stPlot[_plotNo].uPUnitCount;\n    }\n    \n    function GetPlotUnitOwner(uint32 _plotNo, uint32 _plotUnitNo) public view returns(address _PlotUnitOwnerAddress){\n        return att_arr_stPlot[_plotNo].map_stPUnit[_plotUnitNo].aInvestorAddr;\n    }\n    \n    // Leasee required functionality\n    function ChkConditionToLeasee(uint32 _plotNo) public view returns( bool _OkToLease){\n        //Check if the plot is ready for leasing\n        //require(att_arr_stPlot[_plotNo].aLeaseeAddr == att_aNullAdd, \"The Plot is not for Leasee\");\n       \n        return (true);\n    }\n    \n    function LeaseePlot(uint32 _plotNo,uint32 _leaseeDuration, address _LeaseeAddress) public returns(bool){\n        bool temp_bOkToLeasee = ChkConditionToLeasee(_plotNo);\n        require(temp_bOkToLeasee, \"The plot is not ready for Leasee\");\n        att_arr_stPlot[_plotNo].aLeaseeAddr = _LeaseeAddress;\n        att_arr_stPlot[_plotNo].uLeaseeDuration = _leaseeDuration;\n        return true;\n    }\n    \n    function ChkConditionToUnLeasee(uint32 _plotNo, address _leaseeAdd) public view returns(bool){\n        require( att_arr_stPlot[_plotNo].aLeaseeAddr == _leaseeAdd, \"You do not have the permission to UnLeasePlot\");\n        return true;\n    }\n    \n    function UnLeasePlot(uint32 _plotNo, address _leaseeAdd) public returns(bool){\n        bool temp_OkToUnleasee = ChkConditionToUnLeasee(_plotNo,_leaseeAdd);\n        require (temp_OkToUnleasee, \" You are not the leasee to unlease this plot\");\n        att_arr_stPlot[_plotNo].aLeaseeAddr = att_aNullAdd;\n        return true;\n    }\n}",
  "sourcePath": "/Users/dsnathan/Projects/Emurgu/Project/LandLease/LLContract/contracts/Plot.sol",
  "compiler": {
    "name": "solc",
    "version": "0.6.6+commit.6c089d02.Emscripten.clang"
  },
  "schemaVersion": "3.1.0",
  "updatedAt": "2020-06-13T17:46:49.934Z",
  "networkType": "ethereum",
  "devdoc": {
    "methods": {}
  },
  "userdoc": {
    "methods": {}
  }
}